:020000040800F2
:10000000088B00205D4F0108D94F010849460108BF
:10001000DD4F0108E14F0108E54F01080000000035
:10002000000000000000000000000000DDF80008F3
:10003000E94F01080000000085F8000879C70008B2
:10004000ED4F0108F14F0108F54F0108F94F010884
:10005000FD4F010801500108055001080950010831
:100060000D500108115001081550010819500108E0
:100070001D50010821500108255001082950010890
:100080002D50010831500108A145010835500108E3
:1000900039180008395001083D5001084150010845
:1000A000BB450108AD45010845500108495001080C
:1000B0004D50010851500108555001085950010890
:1000C0005D50010861500108655001086950010840
:1000D0006D50010871500108EB4501087550010889
:1000E000795001087D5001088150010885500108B0
:1000F000895001088D500108915001089550010860
:10010000995001089D500108A1500108A55001080F
:10011000A9500108AD5001083F1800084518000813
:10012000B1500108B5500108B9500108BD5001088F
:10013000C1500108C5500108C9500108CD5001083F
:10014000D1500108D5500108D9500108DD500108EF
:10015000E1500108E5500108E9500108ED5001089F
:10016000F1500108F5500108F9500108FD5001084F
:100170000151010805510108095101080D510108FB
:10018000115101081551010877180008195101088B
:100190001D510108000000002151010825510108EE
:1001A000295101082D51010831510108355101082B
:1001B0007D180008395101083D51010883180008D5
:1001C0004151010845510108495101084D510108AB
:1001D000515101085551010810B5040001D1012009
:1001E00010BD94F8410028B9002184F84010204641
:1001F00001F06BF8242084F8410020680168490868
:10020000490001606068216820F070600861206822
:10021000816821F400418160E06821680128A068BC
:100220000CBF40F4004040F404408860E0680228BD
:1002300003D120684FF4006141602068416841F0BB
:10024000007141F4004141602068C16821F400411F
:10025000C16060692169A2690143206841EA022105
:10026000C160206AE1692268014311602068016869
:1002700041F00101016000206064202184F84110F8
:10028000206384F8420010BD10B5040001D10120A4
:1002900010BD242084F84100206801684908490005
:1002A0000160204601F088F80020606484F8410075
:1002B000206384F8420084F8400010BD2DE9F0412D
:1002C00007460E4697F8410020281546984640F00C
:1002D000DE8097F84000012800F0D980012187F8DE
:1002E000401001F0A1FA044639688869020413D568
:1002F00001F09AFA001B1A28F6D3786C40F020001F
:100300007864202187F84110002087F8420087F8A0
:1003100040000120BDE8F081212087F84100102332
:1003200087F84230002078647D62A7F82A80224650
:100330007863C6F30906069C788DDFF80032B0F5C5
:10034000807F09D3FF253D85486803403343DFF8AC
:10035000F00103434B6016E0788D3885C0B24D68DC
:100360002B40334343EA004343F0024343F400533A
:100370004B6008E0FF233B854568DFF8C831294022
:10038000314319434160788D002865D0154638689F
:1003900081698A072A461ED42146384600F061FE4C
:1003A00000285ED114F1010FF1D001F03DFA401B9D
:1003B000844201D3002CEAD1786C40F020007864AC
:1003C000202187F84110002087F8420087F840007C
:1003D0000120BDE8F081796A0B788362786A411C5C
:1003E0007962788D411E7985388D411E3985788DE9
:1003F0000028C8D089B20029C5D1386881690A06A9
:1004000018D414F1010FF8D001F00EFA401B844209
:1004100001D3002CF1D1786C40F0200078642021C9
:1004200087F84110002087F8420087F8400001203B
:10043000BDE8F0817B8DDFF81011B3F5807F2A468F
:1004400098D27B8D3B85DBB245682940314341EA38
:10045000034141F0007195E72146384600F0DCFD8C
:1004600010B10120BDE8F08139682020C8613968E9
:10047000DFF8D8004A6802404A60202187F841101E
:10048000002087F8420087F84000BDE8F081022094
:10049000BDE8F08170B490F84140202C4BD1046845
:1004A000A5692E0447D490F84050012D43D0012671
:1004B00080F84060222580F84150102680F8426084
:1004C0000025456442624385DFF88420DFF88430EC
:1004D000C2624363428DB2F5807F04D3FF2303855C
:1004E0004FF0807303E0428D02854FF00073656822
:1004F000DFF848201540C1F30901294390F828503E
:1005000041EA0541194341F0004141F41051616055
:100510000021426BDFF8404080F84010A2420068A2
:100520001EBFDFF83850AA42F4210268114301606F
:10053000002070BC704770BC02207047009800FC1F
:100540000020FF810000FF01009C00FC00E800FE8D
:100550000000FFFF71050008DD07000829090008F9
:10056000026891691268436B002B18BF18477047E7
:10057000F0B5044681B094F8400001280D461646B7
:1005800008BF022000F096800120E90684F84000B0
:100590000CD5F0060AD522681021D161606C40F0BC
:1005A00004006064204600F019FD78E068070BD570
:1005B000710709D52068416A606A017025F0040559
:1005C000616A4A1C62620AE0A8070FD5B1070DD51F
:1005D000606A226801789162606A411C6162208DC4
:1005E000411E2185608D411E618558E028063AD55F
:1005F000710638D5608D88B3208D78BB2168DFF80F
:10060000F8094A68638DB3F5807FC2F3090209D304
:10061000FF2727854B6818400243DFF8E0090243B3
:100620004A603CE0638DDFF8D8C923851B06E76A82
:1006300067450AD0E76AD1F804C000EA0C0002431B
:1006400042EA13223A434A6029E04F6838400243A5
:1006500042EA132242F000724A6020E020684168BA
:10066000880118D413E0680619D5710617D5608D76
:1006700088B9206841688A0111D4E16ADFF88029CD
:10068000914204D1416841F48041416007E0204635
:1006900000F013FA03E04021204600F004FCA80615
:1006A00005D5B10603D52946204600F094FA00206E
:1006B00084F8400001B0F0BDF0B5054681B0EC6AA9
:1006C00095F8400001280E46174608BF022000F0AA
:1006D00083800120B10685F8400005D5B80603D512
:1006E0003146284600F00DFBF00633D5F90631D52A
:1006F000688DF0B995F84100282808BFB4F1007F53
:1007000004D13146284600F09FFB62E095F8410095
:1007100029280AD1DFF8E8188C4206D02A68102070
:10072000D061284600F05AFC50E029681020C861CA
:100730004FE029681020C861002C686C40F004006C
:1007400018BFB4F1807F686443D1696C284600F01B
:10075000AAFB3EE0700717D5790715D5688D60B103
:100760002968486A696A0870686A421C288D6A624A
:10077000411E2985688D411E6985688D48BBDFF85B
:1007800080188C4225D021E0300706D5390704D5E2
:100790003146284600F046F91BE0B00719D5B907E5
:1007A00017D5688D68B1686A2A6801789162686AAD
:1007B000411C6962688D411E6985288D411E29850D
:1007C00007E0B4F1807F18BF002C02D1284600F06A
:1007D000AFF9002085F8400001B0F0BD70B50446C7
:1007E00094F84000012801D1022070BD0120CB0601
:1007F00084F840001DD5D0061BD522681021D16198
:10080000606CDFF8CC2840F0040060642168606B05
:1008100090420A681DBF0FF21113984220206020F9
:1008200010430860204600F0D9FB002084F8400007
:1008300070BD080647D5530645D52068016821F0EC
:10084000400101602168608DC8B34A68608DB0F5D1
:10085000807FC2F3090204D3FF2323854FF0807306
:1008600009E0608D2085E36ADFF89407834214BFB6
:10087000E36A4FF000734D68DFF87C0794F8286056
:1008800005402A4342EA06421A434A60618D208DA0
:10089000091A6185206894F84110222907D102685D
:1008A00042F400420260002084F8400070BD0168FC
:1008B00041F480410160002084F8400070BD486828
:1008C00081011ED416E0480623D5530621D5608D3C
:1008D000B8B9206841688A0122D4E16ADFF820278C
:1008E000914207D1416841F480414160002084F881
:1008F000400070BD204600F0E0F8002084F8400081
:1009000070BD4021204600F0CEFA002084F840005F
:1009100070BD880604D5920644BF204600F05BF9FE
:10092000002084F8400070BD2DE9F0410646002506
:10093000D6F82C8096F8400001280F46144608BFD0
:1009400002206DD00120B90686F8400005D5A0062A
:1009500003D53946304600F0D4F9F80655D5E106FE
:1009600053D514F4404F4CD0F06B28B1210403D57B
:100970000268506800B90125B06B20B1610402D54E
:100980000268506800B1EDB196F84100282808BF10
:10099000B8F1007F04D13946304600F055FA3CE00A
:1009A00096F8410029282CD1DFF85416884528D024
:1009B00032681020D061304600F010FB304600F065
:1009C000B7F82AE031681020C861B8F1000F706CE8
:1009D00040F00400706418BFB8F1807F96F84100C1
:1009E0001BD1212814BF2928212004D0222818BF78
:1009F0002A2801D122203063716C304600F053FA6E
:100A00000BE031681020C86107E0380705D52107E1
:100A100003D53946304600F005F8002086F840003E
:100A2000BDE8F08170B481B0056890F8411001F024
:100A30002801282939D1A969AC69AA68EB68C66878
:100A4000090C240C022E01F0010104F0FE04C2F393
:100A5000090203F0FE031CD1D60904F0060406F0D7
:100A60000606B4420CD1836C5B1C8364836C022B3E
:100A700020D1002484640823EB6180F8404010E01A
:100A80002A6822F0B8022A60002480F840401A4602
:100A900007E02B6823F0B8032B60002280F8402089
:100AA000224601B070BC00F0C5BE0821E9610022F9
:100AB00080F8402001B070BC7047002180F84210DF
:100AC00090F84120212A19D1202180F841101122CB
:100AD0000263002141636FF0420190F8412002F06F
:100AE0002802282A0268136818BF6FF0F201194023
:100AF0001160002180F8401000F09DBE202180F898
:100B0000411012220263002141636FF0440190F80A
:100B1000412002F02802282A0268136818BF6FF0EB
:100B2000F40119401160002180F8401000F0ACBEC3
:100B300010B481B001680A680023540480F8423080
:100B400004D50A6822F480420A6005E0120403D545
:100B50000B6823F400430B6090F84110292919D148
:100B6000282280F84120212101636FF0420190F892
:100B7000412002F02802282A0268136818BF6FF08B
:100B8000F20119401160002180F8401001B010BC42
:100B900000F090BE90F841102A2919D1282280F83F
:100BA0004120222101636FF0440190F8412002F0BE
:100BB0002802282A0268136818BF6FF0F401194050
:100BC0001160002180F8401001B010BC00F073BE2D
:100BD00001B010BC704710B582B0044620202268D6
:100BE000D06194F8410021280FD194F8412002F0FF
:100BF00028026FF04200282A2268136818BF6FF09D
:100C0000F20018401060112012E094F841002228F0
:100C10000FD194F8410000F028006FF0440228281A
:100C20002068036818BF6FF0F4021A4002601220B7
:100C300020632268DFF89C0453680340536000225D
:100C40006263CA06DFF8B803E06206D523681020A5
:100C5000D861606C40F00400606494F84100602842
:100C600006D1480704D52168486AC0B200900099AF
:100C7000204600F0B3F9606C94F84110602900D070
:100C800028B1616C204602B0BDE810400BE194F839
:100C90004100212817D1202184F841100020206331
:100CA00094F8421084F8420084F84000402920461D
:100CB00004D102B0BDE8104000F0FEBD02B0BDE8B6
:100CC000104000F0B8BD94F84100222817D120212F
:100CD00084F841100020206394F8421084F8420008
:100CE00084F840004029204604D102B0BDE81040FD
:100CF00000F0E3BD02B0BDE8104000F0C5BD02B099
:100D000010BD70B504460D462068066894F8410091
:100D100022682021212818BF2928D16108D194F800
:100D200041002068016821F0FA01016021200BE0F8
:100D3000222818BF2A2808D194F8410020680168A9
:100D400021F0FC010160222020632068416841F409
:100D500000414160DFF87C0321684A6802404A6034
:100D6000204600F03BF9700406D52068016821F4A4
:100D700080410160A06B07E0300409D5206801685C
:100D800021F400410160E06B10B1006841686185A9
:100D900068070FD52168486A616A087025F0040564
:100DA000606A421C208D626220B1401E2085618DE8
:100DB000481E6085608D18B1606C40F0040060646E
:100DC000002084F8420000216163606C60B1616CB6
:100DD000204600F068F894F84100282833D12946CD
:100DE0002046BDE870402FE0E06A854DA8420FD054
:100DF0002046FFF79DFEE562202084F84100002197
:100E0000216384F840102046BDE8704000F056BDD4
:100E100094F8410022280BD1202184F841100020B1
:100E2000206384F840002046BDE8704000F043BDD8
:100E3000202084F84100216384F840102046BDE85A
:100E4000704000F037BD70BD6D4AC262002303637D
:100E5000202280F8412080F842304907436311D5B1
:100E60000268516A426A1170416A4B1C018D4362EB
:100E700041B1491E0185428D511E4185426C42F0AF
:100E80000402426490F8411090F8412001680B6818
:100E900023F0FE030B6010210268D161002380F86B
:100EA000403000F00BBD10B50446002294F841001C
:100EB000534B84F84220E3626285636C194328280F
:100EC0001CBF29282A2861641AD194F841104620B1
:100ED00001F02801282994F8411018BFF62001F0EC
:100EE0002801282921680A6818BFF62022EA000094
:100EF0000860282084F84100DFF8DC11616311E00C
:100F000094F8410094F841102068026822F0FE0233
:100F1000026094F8410060281CBF202184F8411031
:100F200000206063216BA06BE8B1112918BF212953
:100F300019D1206801684A0403D5016821F4804171
:100F40000160A06B00F023FD01282FD0A16B0FF2F0
:100F5000B5008863002084F84000A06B00F0DAFC44
:100F600040B3A06B1EE0E06B00B3122918BF22292A
:100F70001CD1206801680A0403D5016821F40041EE
:100F80000160E06B00F003FD01280FD0E16B0FF270
:100F900075008863002084F84000E06B00F0BAFC24
:100FA00040B1E06B816BBDE8104008472046BDE8CA
:100FB000104000E010BD90F84110602908D12022B7
:100FC00080F841200021016380F8401000F0E2BC6D
:100FD0000021016380F8401000F0DDBC00688169E9
:100FE0008A0744BF002181628169CA0703D48169ED
:100FF00041F0010181617047009C00FC0000FF018D
:101000000000FFFF806A816B09B100228A63C16B17
:1010100009B100228A63CEE770B505460C46164634
:101020002868816988061AD432462146284600F08D
:1010300018F890B900F0F8FB801B844201D3002C13
:10104000EED1686C40F020006864202185F84110E2
:10105000002085F8420085F84000012070BD002086
:1010600070BD70B505460C4628688169C8061646ED
:101070002CD5286881698A060DD414F1010FF8D0A7
:1010800000F0D2FB801B844201D3002CF1D1686CAC
:1010900040F020000FE01021C16120202A68D061BB
:1010A0002846FFF79BFF28680A4A416811404160C3
:1010B000686C40F004006864202185F8411000202D
:1010C00085F8420085F84000012070BD002070BD09
:1010D000DD07000800E800FEB9060008DFF8DC06BE
:1010E00082B0816841F001018160816801F00101F5
:1010F00000910099026842F080520260002200686C
:1011000000F0805000900F2100986FF0010002B0B5
:1011100000F04FBC10B586B004461422002168468A
:1011200000F0AEFC2068B0F1A04F38D1DFF8901687
:10113000DFF890060A68521C012A08D1036843F4BC
:1011400000530360046804F400540594059B04688C
:1011500044F001040460036803F001030593059B58
:10116000046844F0020404600523006800F00200F3
:1011700005900324059800930A60002302930194CC
:1011800069464FF0904000F085FC4FF4804000909D
:101190000022019402926946DFF82C0627E0DFF86E
:1011A0002C16884225D1DFF81816DFF818060A68D1
:1011B000521C012A08D1036843F4005303600468F9
:1011C00004F400540594059B046844F00104046091
:1011D0004023006800F00100059003240598009367
:1011E0000A6000230194029369464FF0904000F09A
:1011F00051FC06B010BD10B586B004461422002183
:10120000684600F03DFC2068DFF8C415884214D120
:10121000DFF8B005026842F00102026002210068B6
:1012200000F0010005900322059800910192002131
:1012300002914FF09040694630E0DFF898158842FF
:1012400014D1DFF88005026842F0010202608021BB
:10125000006800F0010005900322059800910192BA
:10126000002102914FF09040694617E0DFF86815C1
:10127000884215D1DFF84C05026842F00202026094
:101280000121006800F00200059003220598DFF8B4
:1012900038050091019200210291694600F0FAFBA5
:1012A00006B010BD81B00068DFF8301588420AD161
:1012B000DFF82C05026842F008020260006800F0C6
:1012C00008000090009801B0704710B586B0044641
:1012D00014220021684600F0D3FB2068DFF80415D3
:1012E000884231D1DFF80045206840F0804020601E
:1012F0001222216821F0804121604FF44071606921
:1013000040F004006061606900F0040005900598F9
:10131000DFF8D80400910192002102910391082185
:101320000491694600F0B6FB206A40F080402062DC
:101330000022206A00F0804005900A2105985C2078
:1013400000F037FB5C2033E0DFF8A414884231D191
:10135000DFF89444606840F002006060C02160687B
:1013600020F0020060601222606940F004006061B9
:10137000606900F0040005900598DFF870040091A2
:10138000019200210291039108210491694600F025
:1013900081FB606A40F0020060620022606A00F037
:1013A000020005900A210598522000F002FB52200D
:1013B00000F02CFB06B010BD10B50068DFF8241457
:1013C000884213D1DFF8F403DFF82044026822F0EA
:1013D000804202604FF48071204600F033FC4FF4ED
:1013E0000071204600F02EFC5C2014E0DFF80014B1
:1013F000884214D1DFF8C403DFF8F043416821F0DC
:10140000020141602046402100F01CFC8021204662
:1014100000F018FC5220BDE8104000F002BB10BDE7
:1014200010B586B0044614220021684600F028FB5F
:101430002068DFF8C013884214D1DFF888030268FF
:1014400042F0010202600E21006800F001000590E8
:101450000322059800910192002102914FF09040E3
:1014600069462BE0DFF89013884229D1DFF8540356
:10147000026842F001020260016801F00101059179
:101480000599026842F002020260E021006800F063
:10149000020005900322059800910192002102911B
:1014A0004FF09040694600F0F5FA012003210090CA
:1014B0000191002202926946DFF80C0300F0EAFA7B
:1014C00006B010BD10B586B004461422002168464F
:1014D00000F0D6FA2168DFF8240381425BD1DFF8FF
:1014E000E402416841F480714160416801F4807117
:1014F00005910599026842F020020260036803F03A
:10150000200305930599026842F004020260036813
:1015100003F0040305930599026842F00802026093
:101520004FF48061006800F00800059002220598E1
:10153000DFF8CC02009101920021029103220A21DE
:1015400004910392694600F0A5FA0221019100225C
:1015500002921E200321009003910A220492694600
:10156000DFF8880200F096FA02210191002202922F
:1015700008200321009003910A2204926946DFF8B3
:10158000840200F087FA002205215F2000F011FAA2
:101590005F2000F03BFA06B010BD00689A4988420F
:1015A00004D19A48026842F400420260704700B5D4
:1015B00081B00068964988420BD18048816841F427
:1015C00000618160806800F400600090009801B0C4
:1015D00000BDB0F1804F0BD17848016841F00101A6
:1015E0000160006800F001000090009801B000BDAB
:1015F000884988420BD17148026842F004020260B7
:10160000006800F004000090009801B000BD82491D
:10161000884214D16948026842F020020260002228
:10162000006800F02000009005210098372000F0AD
:10163000C0F901B05DF804EB372000F0E7B901B064
:1016400000BD10B586B0044614220021684600F0A3
:1016500017FA20686E49884214D15A48026842F04D
:10166000100202604FF47C51006800F010000590F9
:101670000222059869480091019202920392049215
:10168000694647E0B0F1804F2BD14E48016841F0E8
:1016900001010160026802F00102059205990268E9
:1016A00042F0080202604FF40041006800F00800B8
:1016B0000590022205980091019200210291039168
:1016C0004FF0904001210491694600F0E3F90022B7
:1016D0000292039290200221022200900191049232
:1016E00016E04C49884217D13648026842F0080299
:1016F00002604FF4E041006800F00800059002220B
:101700000598009101920021029103910221049118
:1017100069463C4800F0BEF906B010BD10B586B071
:10172000044614220021684600F0AAF920683C49CA
:1017300088421ED12348416941F480414161416999
:1017400001F4804105910599026842F0100202609F
:101750000321006800F010000590022205982F4830
:1017600000910192002102910391072104916946A1
:1017700020E02C4988421FD11248C16841F4003151
:10178000C160C16801F4003105910599026842F019
:10179000080202606021006800F008000590022243
:1017A00005981848009101920021029103910721A8
:1017B0000491694600F06EF906B010BD5810024061
:1017C000007B00204C100240000400480001005043
:1017D00000020140040201400C020140000C0240E2
:1017E00048100240007800403810024000080048CD
:1017F000008400400003014004030140001000A0E9
:1018000000140048000C00480028004090100240DE
:10181000002C014000080040001400400010004867
:10182000003801400044004001480068704700BF94
:101830007418002070477047164800F067BB1648C0
:1018400001F084BA00B581B0144801F07FFA144861
:101850000178491C0170C9B2052903DB0021017020
:1018600001F040FF0F480168491C016001B05DF8BC
:1018700004EB02F053BD0C48FEF772BE0B48FEF7B6
:101880006FBE0B4802F0DABE0749884208BF03F07A
:10189000B5BA70475066002034780020E872002006
:1018A000277A0020F07A0020B87600206C7600209D
:1018B0000477002070477047704770477047416F4A
:1018C0008968012280F842206FF00103426FD2F84C
:1018D00008C0CCF8103000224A638A63CA630A69E0
:1018E000D307FCD54A6C42F400424A64416F91F838
:1018F000BA20022A0DD1B1F8AC20096A8A61416F81
:10190000B1F8AE20496A8A61406FB0F8B010806AC1
:101910008161704710B590F825100024022909D084
:101920000422C263012180F8251080F8244001249C
:10193000204610BD01680A6822F00E020A600168A4
:101940000B685B085B000B60816C0A6822F4807294
:101950000A60012190F84420036C02F01F029140BC
:101960005960C26C016D5160416D31B10A6822F459
:1019700080720A60816DC26D4A60012280F8252064
:1019800080F82440816B01B18847204610BD90F853
:101990002500704770477047324B19684FF6FF02B9
:1019A0000002114000F4E06008432F49084318602A
:1019B000704730B42B4B1C68C4F30223C3F10705F6
:1019C000052D28BF0F2405D20125C3F1070405FA10
:1019D00004F4641E1D1D072D34BF0023DB1E2140AF
:1019E0009940012404FA03F35B1E1A4011430901D4
:1019F000020003D41D48815430BC70471C4B02F0D8
:101A00000F021A4402F8041C30BC7047010007D4CE
:101A1000012200F01F01174B8A40400943F82020A3
:101A2000704701000BD4012200F01F01124B8A40C5
:101A3000400943F82020BFF34F8FBFF36F8F7047EB
:101A4000401EB0F1807F01D3012070470B494860F0
:101A5000F02081F8130D00228A6007200860002022
:101A6000704700000CED00E00000FA0500E400E023
:101A700018ED00E000E100E080E100E010E000E0AF
:101A800010B5044610460A460146204603F0C8F940
:101A9000204610BD2DE9F04F81B00E464FF00009F1
:101AA0003568AB49AB4AAC4B002D4FF00F0800F046
:101AB000C68005460124306804FA09F4204000F08D
:101AC000B7804FEA490C032707FA0CF76FEA070EB5
:101AD0007768012F18BF022F03D0112F18BF122FC4
:101AE00013D1AF68D6F80CA00EEA07070AFA0CFA71
:101AF0004AEA0707AF606F6827EA04047768C7F30C
:101B0000001707FA09F73C436C60EC68B7680EEA07
:101B1000040407FA0CF73C43EC607468022C18BF0D
:101B2000122C14D14FEAD90405EB84044FEA89073B
:101B3000D4F820A007F01C0708FA07FB2AEA0B0AD2
:101B4000D6F810B00BFA07F747EA0A0727622C68A5
:101B50000EEA0407347904F0030404FA0CF43C435D
:101B60002C607468E40063D51C6844F001041C60B8
:101B70004FEA990C1C6804F001040094B5F1904FF1
:101B8000009C52F82C704FEA890404F00C0E08FAFD
:101B90000EF427EA040408BF002719D06F4FBD4296
:101BA00008BF012714D06E4FBD4208BF02270FD0D7
:101BB0006C4FBD4208BF03270AD06B4FBD4208BF20
:101BC000042705D0694FBD420CBF0527062700BF7B
:101BD00007FA0EF73C4342F82C406FEA000C0C6801
:101BE0000CEA040E7468E70348BF40EA0E0EC1F821
:101BF00000E04C680CEA040E7468A70348BF40EA92
:101C00000E0EC1F804E08C680CEA040E7468E7025A
:101C100048BF40EA0E0EC1F808E0CC680CEA040E9A
:101C20007468A40248BF40EA0E0EC1F80CE000BF81
:101C300009F10109306830FA09F07FF43BAF01B0D7
:101C4000BDE8F08F2DE9F04F0F228846B8F1000F64
:101C50004FF0000A3E493F4B6BD00446012000FA8A
:101C60000AFB1BEA08005FD04FEA9A0E4FEA8A0C83
:101C700053F82E600CF00C0502FA05F9B4F1904F00
:101C800009EA060608BF002718D0344FBC4208BF37
:101C9000012713D0324FBC4208BF02270ED0314F6C
:101CA000BC4208BF032709D02F4FBC4208BF0427FE
:101CB00004D02E4FBC420CBF0527062707FA05F5B6
:101CC000AE4212D10D68C04305400D604E6806401B
:101CD0004E608D6805408D60CE683040C86053F816
:101CE0002E0020EA090043F82E0003254FEA4A009F
:101CF00005FA00F02568054325600CF01C074FEA43
:101D0000DA0504EB850602FA07F7356ABD4335624A
:101D1000C043E5680540E560656825EA0B05656038
:101D2000A5682840C4F808000AF1010A38FA0AF048
:101D300094D1BDE8F08F0AB181617047816270472C
:101D4000426901EA0203914341EA0341816170471C
:101D500000040140080001406010024000040048F7
:101D600000080048000C004800100048001400481B
:101D700030B5040085B008BF012000F0B08094F8B1
:101D8000A90228B9002184F8A812204603F08EF891
:101D9000032084F8A902206803F0FBF960680021A1
:101DA000002841D001EB810204EBC200012380F83E
:101DB000293080F82810C1860022002380F82B20CB
:101DC0008363C2630364491C6068C9B281422BD239
:101DD00001EB810204EBC200012380F8293080F876
:101DE0002810C1860022002380F82B208363C26361
:101DF0000364491C6068C9B2814215D201EB8102BB
:101E000004EBC200012380F8293080F82810C18635
:101E10000022002380F82B208363C2630364491CE3
:101E20006068C9B28142BDD36068002100283FD0FC
:101E300001EB810204EBC200002380F8681180F8F6
:101E4000693180F86B31C0F87831C0F87C31C0F866
:101E50008031491C6068C9B2814229D201EB8102FC
:101E600004EBC20080F8681180F8693180F86B31AA
:101E7000C0F87831C0F87C31C0F88031491C606806
:101E8000C9B2814214D201EB810204EBC20080F896
:101E9000681180F8693180F86B31C0F87831C0F88A
:101EA0007C31C0F88031491C6568C9B2A942BFD3F2
:101EB00083B0211D6846202203F07AFF0EBC206803
:101EC00003F070F9002084F82400012184F8A9129D
:101ED000E069012804BF204603F0D2FF002005B0CE
:101EE00030BD10B5044694F8A802012801D10220A3
:101EF00010BD012084F8A802206803F041F9206891
:101F000003F0E1FE002084F8A80210BD2DE9F041A5
:101F10000546286803F0DFFE000400F1E080286831
:101F200003F0D9FE40051BD52968B1F844204FF6CF
:101F3000FF300240A1F84420284602F0F0FF95F857
:101F4000A80201280CD0012185F8A812002085F8EC
:101F500024000021286803F0B0FE002085F8A802C4
:101F6000286803F0B8FE400407D52968B1F844207A
:101F70004BF6FF700240A1F84420286803F0ABFE46
:101F8000800407D52968B1F844204DF6FF7002405F
:101F9000A1F84420286803F09EFEC00425D52968D6
:101FA000B1F840204FF6FB700240A1F840204FF6F8
:101FB000F7702968B1F840200240A1F8402095F858
:101FC000E012012906D1002085F8E0020021284610
:101FD00003F0A3F8284602F0C2FF2968B1F84420B4
:101FE0004EF6FF700240A1F84420286803F073FE0B
:101FF000000518D52868B0F8401041F00801A0F895
:1020000040104FF2FF702968B1F844200240A1F857
:1020100044202868B0F8401041F00401A0F84010B6
:10202000284602F08EFF286803F055FE000640F1B6
:10203000A6832868B0F844204FF67F710A40A0F8C4
:10204000442095F8E002002840F096832868B0F814
:10205000401041F00401A0F840102868B0F840108A
:1020600041F00801A0F84010012085F8E00229683D
:10207000B1F85400800800F03C00C5F8E4020121EA
:10208000284603F04AF87AE3018848F60F721140B7
:1020900041F4004101802868B0F8501095F82820DC
:1020A00001EBC203C01800F202400088E96BC0F3E4
:1020B000090068640844E8630021284602F022FF12
:1020C00095F8240058B1286C48B995F8240029687F
:1020D00040F08000A1F84C00002085F8240028681A
:1020E000B0F844100A047FF51AAFB0F8441011F0AC
:1020F0000F0840F08980C906C6D5024611880B0535
:102100001FD5B0F8501095F8682101EBC203C31831
:1021100003F206431B88B5F86E21C3F30903C5F823
:10212000843105F52C7103F00FFE2868018840F614
:102130008F72114041F080010180284602F0D2FEEA
:10214000CDE70804CBD5114640F68F700A880240CF
:1021500042F080020A802868B0F8502095F8681193
:1021600002EBC103C31803F206431B88C3F3090340
:10217000002BC5F884311CBFD5F87C1100290ED086
:10218000B5F86E2103F0E0FDD5F87C01D5F8841197
:102190000144C5F87C112846002102F0A9FE2868F8
:1021A00001880A059BD4B0F850208118D5F8780131
:1021B00001F2064148B9088848F2FF321040088011
:1021C0000B8843F400430B8010E03F2805D24208FF
:1021D000C00748BF521C900207E0420910F01F0FD1
:1021E00008BF521E900240F4004008802868018811
:1021F0004BF68F72114081F4405141F4004141F09F
:10220000800101806BE700BF30F82870380440F18E
:10221000D780296831F8280040F68F72104040F0CE
:10222000800008EB880221F8280005EBC20202F5C5
:10223000B476307B90B92868B0F85010327801EB52
:10224000C203C31803F206431C88C4F30904002C1C
:1022500000F0A280F288716923469BE0F0780228A2
:1022600067D12C68B0697A0432782346B4F85040BC
:1022700004EBC2010B442FD503F202431C88C4F3C4
:102280000904A04203D3001BB06111D102E0002079
:10229000C6F818004BF68F71286830F822300B40D2
:1022A00083F4005343F4004343F0800320F82230CA
:1022B00078060CD52968307831F8202048F68F73DD
:1022C0001A4042F4004242F0C00221F82020002CC3
:1022D00062D0328923465AE003F206431C88C4F3D5
:1022E0000904A04203D3001BB06111D102E0002019
:1022F000C6F818004BF68F71286830F822300B4072
:1023000083F4005343F4004343F0800320F8223069
:1023100078060CD42968307831F8202048F68F737D
:102320001A4042F4004242F0C00221F82020002C62
:102330002AE02968307831F8202048F68F731A4057
:1023400042F4004242F0C00221F8202030782A688E
:10235000034632F823104A042968B1F8502002EBF2
:10236000C0000AD5081800F202400488C4F309042A
:10237000002C11D03289234609E0081800F20640EB
:102380000488C4F30904002C06D0728923467169BD
:10239000D5F8000003F0D8FCF0692018F0617269EC
:1023A00022447261B06938B13069844204D328682C
:1023B000314603F0E3F803E03178284602F098FD57
:1023C00038067FF58CAE08EB8801286805EBC10163
:1023D00001F1280430F8281048F60F72114041F43A
:1023E000004120F82810E078022824D1F80522D4F2
:1023F00028682178B0F8502002EBC102104400F2A6
:1024000002400288A069C2F3090282420DD2801AFA
:10241000A0610CD06069E169104460615218E2610A
:102420002146286803F0AAF859E60020A061284652
:1024300002F068FD53E67906A0692E68217840F124
:10244000C380B6F85080CA00904406EB080303F23C
:1024500002431B88C3F30903834224D2C01AA0613C
:1024600023D078040CD5286830F8212048F68F76E0
:1024700016EA020242F4404242F0800220F8212093
:1024800094F82400012840F06781E26960699A1895
:10249000E261C1182269206A616190424CD31346FF
:1024A000C01A206251E00020A061607880B92868DD
:1024B000B0F850104018121802F2024248F2FF30F1
:1024C000138803401380108840F4004010800AE015
:1024D000012829D12868B0F850104018121802F2CB
:1024E0000242002313802968607888B9B1F850004F
:1024F0000818217800EBC10000F2064048F2FF31D5
:1025000002880A400280038843F4004303800BE002
:10251000012809D1B1F850000818217800EBC1005A
:1025200000F20640002202802846217802F0EAFCF0
:10253000780440F11181BFE010B984F8240004E070
:10254000002284F8242003462262607860BB286859
:10255000B0F850208018227800EBC20000F2024050
:102560005BB9028848F2FF36324002809BB207888E
:1025700047F4004707802289EBE03F2B08D25A0836
:10258000DE0748BF521C920202809BB22289E0E023
:102590005A0913F01F0F08BF521E920242F4004264
:1025A00002809BB22289D4E0012809D12868B0F8C2
:1025B00050208018227800EBC20000F20240038015
:1025C0009BB22289C5E000BFB6F85080CA00904493
:1025D00006EB080303F206431B88C3F30903984282
:1025E00023D3C01AA06122D078040BD4286830F815
:1025F000212048F68F76324042F4404242F0800279
:1026000020F8212094F82400012840F0A580E269F8
:1026100060699A18E261C1182269206A616190427A
:1026200058D31346C01A20625DE00020A061607894
:1026300080B92868B0F850104018121802F202420F
:1026400048F2FF30138803401380108840F40040A4
:1026500010800AE0012829D12868B0F850104018ED
:10266000121802F20242002313802968607888B9A8
:10267000B1F850000818217800EBC10000F20640C4
:1026800048F2FF3102880A400280038843F4004385
:1026900003800BE0012809D1B1F850000818217817
:1026A00000EBC10000F2064000220280284621789B
:1026B00002F028FC78044FD42968207831F82020D3
:1026C00048F68F731A4042F4404242F0800221F8EB
:1026D000202041E010B984F8240004E000220346E1
:1026E000226284F824202A68607828BBB2F850005F
:1026F0001018227800EBC20000F206404BB90288A5
:1027000048F2FF3632400280078847F400470780CE
:102710001DE03F2B06D25A08DE0748BF521C92022A
:10272000028014E05A0913F01F0F08BF521E9202D4
:1027300042F4004202800AE0012808D1B2F85000B9
:102740001018227800EBC20000F2064003809BB212
:102750006289286803F0C2FA2968207831F82020BD
:1027600048F6BF731A4082F0300242F4004242F051
:10277000800221F82020B2E4284602F0E2FB28681B
:1027800003F0A9FA80050AD52968B1F844204FF66C
:10279000FF500240A1F84420284602F0BCFB286804
:1027A00003F099FAC00507D52968B1F844204FF61F
:1027B000FF600240A1F84420BDE8F08110B5044656
:1027C00094F8A802012801D1022010BD012084F84C
:1027D000A80284F82410206803F06FFA002084F81F
:1027E000A80210BD70B5054601F0070000EB80049B
:1027F00005EBC4000E0647BF00F12804012000F5D8
:10280000B474002001F00701607021702261E37050
:10281000607808B12178E181022B04BF002020718B
:1028200095F8A802012801D1022070BD012085F889
:10283000A8022146286802F0C3FC002085F8A802FF
:1028400070BD10B5044601F0070000EB800204EBF8
:10285000C2000B0647BF2830012200F5B4700022E9
:1028600001F007014270017094F8A812012901D10A
:10287000022010BD012284F8A8220146206802F03F
:10288000CAFD002084F8A80210BD30B51C4601F036
:10289000070303EB830500EBC50303F5B47381B0B5
:1028A0005A619C610022002401F00701DA615C702A
:1028B00019701946006802F061FE002001B030BDB9
:1028C00001F0070101EB810200EBC200D0F88401A6
:1028D000704730B51C4601F0070303EB830500EB9E
:1028E000C503283381B05A619C611C620122002417
:1028F00001F0070183F82420DC615A701970194631
:10290000006802F03BFE002001B030BD10B5044667
:1029100001F007006268824201D2012010BD0A0660
:1029200006D500EB800304EBC3002830012206E04B
:1029300001EB810304EBC30000F5B4700022427088
:102940000123837001F00701017094F8A812012996
:1029500001D1022010BD84F8A8320146206803F09E
:102960004BF9002084F8A80210BD10B5044601F010
:102970000F0362689A4201D2012010BD01F00700E6
:1029800000EB800204EBC2000B0647BF2830012297
:1029900000F5B470002200234270837001F007013B
:1029A000017094F8A812012901D1022010BD012262
:1029B00084F8A8220146206803F03EF9002084F83C
:1029C000A80210BD10B5040001D1012010BD94F87B
:1029D0003D0028B9002184F83C102046FEF7E7FDB1
:1029E000022084F83D00211D206800F01FFC01201A
:1029F00084F8480084F83E0084F83F0084F84000E2
:102A000084F8410084F8420084F8430084F84400CC
:102A100084F8450084F8460084F8470084F83D00B7
:102A2000002010BD90F83D10012901D00120704711
:102A3000022180F83D100168CA6842F00102CA60B4
:102A40000168DFF85C20914218BFB1F1804F17D0C8
:102A5000DFF8502091421CBFDFF84C3099420FD074
:102A6000DFF8482091421CBFDFF84430994207D07C
:102A7000DFF8402091421CBFDFF83C30994209D179
:102A80008A68DFF838100A40062A18BFB2F5803F7E
:102A900004D001680A6842F001020A600020704711
:102AA000002C01400004004000080040000C0040E1
:102AB0000034014000400140005001400700010087
:102AC00010B5040001D1012010BD94F83D0028B9D3
:102AD000002184F83C10204603F0E7F9022084F836
:102AE0003D00211D206800F0A1FB012084F8480072
:102AF00084F83E0084F83F0084F8400084F84100E8
:102B000084F8420084F8430084F8440084F84500C7
:102B100084F8460084F8470084F83D00002010BD8A
:102B200011B990F83E2014E0042908BF90F83F2026
:102B30000FD0082908BF90F840200AD00C2908BF00
:102B400090F8412005D010290CBF90F8422090F851
:102B50004320012A01D00120704719B9022280F8D0
:102B60003E2019E0042903D1022280F83F2013E01F
:102B7000082903D1022280F840200DE00C2903D15E
:102B8000022280F8412007E0102907BF022280F8C6
:102B90004220022380F843300268012301F01F0124
:102BA000D2F820C003FA01F12CEA010CC2F820C0CF
:102BB000136A19431162DFF87421016891421CBF46
:102BC000DFF86C3199420ED0DFF868C161451CBF57
:102BD000544B994207D0DFF850C161451CBFDFF864
:102BE0005831994205D1D1F844C04CF4004CC1F899
:102BF00044C00168914218BFB1F1804F17D0DFF88F
:102C00003C2191421CBFDFF8383199420FD0DFF8E8
:102C1000342191421CBFDFF81831994207D0DFF808
:102C2000142191421CBFDFF81031994209D18A6802
:102C3000DFF814110A40062A18BFB2F5803F04D00D
:102C400001680A6842F001020A600020704730B44F
:102C5000036801251C6A01F01F029540AC431C6209
:102C60001C6A1C620268DFF8C4309A421CBFDFF89D
:102C7000C040A2420DD0DFF8BC309A421CBF294CA4
:102C8000A24206D0284B9A421CBFDFF8AC40A242B9
:102C90000DD1136A41F21114234202BF136A44F2A8
:102CA0004444234203D1536C23F40043536441F260
:102CB00011140268136A234202BF126A44F24443A9
:102CC0001A4204D1026813685B085B00136029B9DB
:102CD000012180F83E10002030BC7047042905D146
:102CE000012180F83F10002030BC7047082905D131
:102CF000012180F84010002030BC70470C2905D11C
:102D0000012180F84110002030BC7047102907BF16
:102D1000012180F84210012280F8432030BC0020BD
:102D2000704700000044014000480140002C014071
:102D300000340140004001400050014000040040C8
:102D400000080040000C00400700010010B50446D8
:102D5000206801698A0716D5C1688A0713D56FF004
:102D60000201016101222277806910F0030F2046E1
:102D700002D003F09BF804E003F099F8204603F03A
:102D800097F800202077206801694A0716D5C168A6
:102D90004A0713D56FF0040101610222227780698E
:102DA00010F4407F204602D003F080F804E003F0E6
:102DB0007EF8204603F07CF8002020772068016927
:102DC0000A0716D5C1680A0713D56FF0080101611B
:102DD00004222277C06910F0030F204602D003F0CE
:102DE00065F804E003F063F8204603F061F8002082
:102DF000207720680169CA0616D5C168CA0613D5AE
:102E00006FF01001016108222277C06910F4407F41
:102E1000204602D003F04AF804E003F048F82046C8
:102E200003F046F80020207720680169CA0708D51A
:102E3000C168CA0705D56FF001010161204601F0A4
:102E4000D0FA206801690A0608D5C1680A0605D5C6
:102E50006FF080010161204603F02BF820680169C2
:102E6000CA0508D5C1680A0605D56FF480710161ED
:102E7000204603F01FF8206801694A0608D5C1689A
:102E80004A0605D56FF040010161204603F013F8B2
:102E9000206801698A0608D5C1688A0605D56FF0E1
:102EA00020010161204603F007F820680169CA0289
:102EB00008D5C168CA0205D56FF4801101612046AA
:102EC00002F0FBFF206801698A0208D5C1688A0206
:102ED00005D56FF400110161204602F0EFFF206874
:102EE00001694A0208D5C1684A0205D56FF480011C
:102EF0000161204602F0E3FF206801690A020AD559
:102F0000C1680A0207D56FF4000101612046BDE8DF
:102F1000104002F0D5BF10BD0000000030B50446DF
:102F200081B094F83C0001280D4608BF022000F053
:102F30007E800120142A84F83C0000F27580DFE8CE
:102F400002F00B7373731C7373732E7373733F737D
:102F50007373517373736200206800F0D6F92168AF
:102F6000886940F008008861886920F00400886161
:102F70008A69286902438A6156E0206800F011FAE4
:102F80002068816941F400618161816921F4806177
:102F9000816181692A6941EA0221816144E02068F6
:102FA00000F041FA2168C86940F00800C861C869AA
:102FB00020F00400C861CA6928690243CA6133E08D
:102FC000206800F070FA2068C16941F40061C161B5
:102FD000C16921F48061C161C1692A6941EA0221A4
:102FE000C16121E0206800F09EFA2168086D40F080
:102FF00008000865086D20F0040008650A6D28695E
:1030000002430A6510E0206800F0BCFA2068016DF8
:1030100041F400610165016D21F480610165016D7C
:103020002A6941EA02210165002084F83C0001B0D0
:1030300030BD70B490F83C20012A08BF022000F097
:10304000C780012280F83C20022380F83D30DFF861
:10305000702603689C6814409C600A68130018BFBF
:10306000B2F1100300F0A480103B00F0A180103BEF
:1030700000F09E80103B00F07F80103B43D0103B5F
:103080005DD0103B1BD041F690741B1B29D04FF430
:103090007E241B1B00F08C80103B00F08980103BCD
:1030A00000F08680103B00F08380103B00F08080B1
:1030B000103B7DD0103B7BD0103B79D081E0CA68BB
:1030C0004B6804688968A56825F47F4529430B434C
:1030D00043EA0223A36001688A6842F077028A60AB
:1030E0006FE0CA684B6804688968A56825F47F4565
:1030F00029430B4343EA0223A36001688A6842F430
:1031000080428A605DE0CA684B68016818318C684B
:103110008D686D086D008D6024F00A040E6826F03D
:10312000F00646EA02160E6023438B600268DFF861
:10313000941593680B4043F05703936041E0CA68CD
:103140004B68016818318C6824F010048C600C689E
:103150008D6824F4704444EA023425F0A0050C6024
:1031600045EA03158D600268DFF8581593680B4037
:1031700043F06703936024E0CA684B680168183124
:103180008C688D686D086D008D6024F00A040E68EF
:1031900026F0F00646EA02160E6023438B600268B2
:1031A000DFF8201593680B4043F04703936008E075
:1031B0000368DFF810159C680C40224342F00702B8
:1031C0009A60012180F83D10002280F83C20002008
:1031D00070BC7047000010B5044694F83C0001280C
:1031E00001D1022010BD012084F83C00022284F8A5
:1031F0003D20204600F000FA30B1012084F83D0067
:10320000002184F83C1010BD2068C16821F0400105
:10321000C1602068C16821F48041C160012084F848
:103220003D00002184F83C10002010BD30B4DFF8D0
:10323000B8330468984218BFB0F1804F12D0DFF85D
:10324000AC2390421CBFDFF88054A8420AD0DFF8BC
:103250007C2490421FBFDFF89853A842DFF85C241B
:10326000904218D14A6824F070041443984218BF61
:10327000B0F1804F1FD0DFF8742390421CBFDFF8FD
:103280004854A84217D0DFF8442490421CBFDFF80E
:103290006053A8420FD0DFF85C2390421CBFDFF8D8
:1032A0001454A84207D0DFF8102490421CBFDFF866
:1032B0000C54A84203D1CA6824F4407414434A69E8
:1032C00024F080041443046098428C68C4621CBFDC
:1032D000DFF81C3398420A6882620FD0DFF81423AB
:1032E00090421CBFDFF8CC33984207D0DFF8C823E8
:1032F00090421CBFDFF8C433984201D109690163D1
:103300000122426130BC70470000F0B4026A5208EA
:1033100052000262066A44688569DFF8B4230B68CC
:1033200015408A681D4326F002061643AE4B9842AC
:103330001CBFAF4FB8420ED0AE4A90421CBFDFF860
:103340007473B84207D0DFF8702390421CBFDFF8D7
:103350006C73B84214D1CA6826F008061643984226
:103360001CBFA34B984226F004060DD0A14A904200
:103370001FBFDFF840339842DFF83C23904203D070
:10338000DFF83833984205D14B698A6924F44074D8
:103390001C43144344608561496841630662F0BC84
:1033A0007047F0B4026A22F010020262056A4368B4
:1033B0008469DFF820230E6825F0200514408A6810
:1033C00045EA0215884A44EA062490421FBF884E07
:1033D000B042DFF8E872B8420BD1CE6825F0800524
:1033E000904245EA06151CBF814A904225F04005EF
:1033F0000BD0804EB0421CBFAE4A904205D0AE4EBC
:10340000B0421CBFAD4A904206D14E698A6923F48E
:103410004063164343EA86034360846149688163DD
:103420000562F0BC7047F0B4026AA94B22F48072C6
:103430000262066A4468C5690A681D4015438B68C4
:10344000694A26F4007646EA032690421FBF684B7D
:1034500098429A4FB8420BD1CB6826F4006690424E
:1034600046EA03261CBF624A904226F480660BD0CF
:10347000604B98421CBF8F4A904205D08E4B9842B9
:103480001CBF8E4A904206D14B698A6924F440548D
:10349000134344EA03144460C5614968C16306628A
:1034A000F0BC70470000F0B4026A22F4805202625D
:1034B000056A4368C469874A0E6825F400551440BC
:1034C0008A6845EA0235484A44EA062490421FBF0A
:1034D000474EB042794FB8420BD1CE6825F4004533
:1034E000904245EA06351CBF414A904225F480458A
:1034F0000BD0404EB0421CBF6E4A904205D06E4E7B
:10350000B0421CBF6D4A904206D14E698A6923F4CD
:103510004043164343EA86134360C461496801642B
:103520000562F0BC704770B4026A6B4B22F48032C3
:103530000262056A4668046D0A681C4014438B6881
:10354000294A25F4003545EA034590421CBF284B23
:1035500098420BD0274A90421CBF564B984205D048
:10356000554A90421CBF554B984204D14A6926F4F3
:10357000803646EA02264660046549688164056231
:1035800070BC704770B4026A22F480120262046A4E
:103590004568036D514A0E68134043EA06238A6862
:1035A000114E24F4001444EA0254B0421CBF104AE5
:1035B00090420BD00F4EB0421CBF3E4A904205D005
:1035C0003D4EB0421CBF3D4A904204D14A6925F4A9
:1035D000802545EA8225456003654968C164046227
:1035E00070BC704700000000002C01400004004047
:1035F000003401400040014030B404683148A568FF
:103600004B68374A05401D43086815400543A560CF
:103610004A68402A11D0502A24D0602A34D0702A17
:1036200044D108698A68C968A36823F47F431943B1
:103630000A4342EA0022A26038E00868052814BF65
:10364000B0F1011F012032D0206A226A52085200D4
:103650002262A269096922F0F00242EA0112A26123
:10366000206223E008698968226A236A5B085B009C
:10367000236222F00A02A36923F0F00343EA001355
:10368000A3611143216211E008698968226A22F06E
:1036900010022262A269236A22F4704242EA0032D6
:1036A00023F0A003A26143EA01132362002030BC8F
:1036B00070470000004401400048014000500140B4
:1036C0008800CEFF8FFFCFFF00080040000C0040B5
:1036D0008CFFFEFFFF8CFFFE8FFFFEFFFF8FFFFEC4
:1036E000F8FFFEFF33480188491C018070472DE92F
:1036F000F04330494A8A0B890C8AB1F80680CE899A
:103700008F89B1F804C0B1F802E04D89088800281B
:103710004FF000093DD06D1CA8B20228A1F800901E
:10372000A8BF002505DA20B1BEF1000F4FF0010C53
:103730000AD07F1CB8B20428CE46C8BF0027BCF10F
:10374000000F07F103090BD0761CB0B20A284FF026
:10375000000CA8BF002601DA032804D006F10809EE
:103760005FEA08000BD0641CA0B20A284FF00008E2
:10377000A8BF002401DA052803D004F112091800BB
:1037800007D0521C002390B20A28A8BF002202F1E1
:103790001C09A1F814904D818F81CE81A1F806807B
:1037A0000C82A1F802E0A1F804C00B814A82BDE8B6
:1037B000F083000032790020F0B587B002F084FB7E
:1037C00000F02EF968460021002200230EC006C03A
:1037D000DFF8B84BDFF8B87BD4F84C04DFF8B46BF3
:1037E00040F01000C4F84C0440F20245D4F84C04F8
:1037F00000F0100005900598D4F84C1441F0040135
:10380000C4F84C14D4F84C0400F00400059005985A
:10381000D4F84C1441F02001C4F84C14D4F84C04F2
:1038200000F0200005900598D4F84C1441F00101F7
:10383000C4F84C14D4F84C0400F00100059005982D
:10384000D4F84C1441F00201C4F84C14D4F84C04E0
:1038500000F0020005900598D4F84C1441F00801DE
:10386000C4F84C142C21D4F84C0400F00800059046
:1038700005983846FEF75FFA002229463046FEF7E3
:103880005AFA2C2100910122002102910391019208
:1038900069463846FEF7FEF84FF44250002100908A
:1038A000019102916946DFF8580BFEF7F3F84FF4E7
:1038B0004070002100900191029130466946FEF768
:1038C000E9F80120019000220292039200956946D6
:1038D0003046FEF7DFF84FF4806000210090019140
:1038E00002916946DFF81C0BDFF81C5BFEF7D2F88B
:1038F00000F0F7F800F082F900F0C9F900F0DEF905
:1039000000F0F3F9EC6405F14C0002F0EDFA08B1B7
:1039100072B6FEE700F04EFA00F069FA00F0D2FA53
:1039200000F0CFFC02F0FCFA00F0F6F900F01BFA10
:1039300000F07AFA00F096FA00F084FB00F0E0FB69
:1039400000F061FC00F090FC02F002FB00F036FC9D
:1039500002F028FB08B172B6FEE700220921182008
:10396000FEF727F81820FEF751F80022052119204C
:10397000FEF71FF81920FEF749F800220721122050
:10398000FEF717F81220FEF741F800220A21262040
:10399000FEF70FF82620FEF739F82846FFF742F821
:1039A00002F012FB02F03EFC02F08AFC01F080F90A
:1039B00000210FF60C3002F02AFD686700210FF697
:1039C000143002F024FDA86700210FF61C3002F02D
:1039D0001EFDC5F8900000210FF6203002F017FD03
:1039E000E86700210FF6283002F011FDC5F88000CD
:1039F00000210FF6303002F00AFDC5F884000021E6
:103A00000FF6343002F003FDC5F8880000210FF6F0
:103A10003C3002F0FCFCC5F88C0002F0F1FCFEE743
:103A200010B5A8B0382105A802F012FD68460021A3
:103A3000002200230EC006C0542113A802F008FD86
:103A4000002002F009FD02F06FFD0122DFF8BC0941
:103A5000016821F01801016007924FF4803106914E
:103A60000B924021032209910D92022155220C91C3
:103A70000E910F9227200590082102224FF48074A6
:103A8000109111921292089405A802F055FD08B108
:103A900072B6FEE70F2003210090019100220292EE
:103AA000039204920421684602F068FF08B172B6DE
:103AB000FEE7DFF85C19139100224FF08051149259
:103AC00015921C921D92229224912692279413A85B
:103AD00003F0BAF808B172B6FEE703F094F828B024
:103AE00010BD10B59AB017A800210022002380E86D
:103AF0000E003C2108A802F0ABFC68460021002221
:103B0000002300241EC01EC04FF40020DFF804492B
:103B100060604FF40040E0604FF0A0410120606120
:103B20002160032004212062A2602261A161A2839E
:103B300084F82420E262226384F83820E26384F867
:103B40004020204603F0F4F908B172B6FEE7179062
:103B500017A9204603F098FF08B172B6FEE70022CD
:103B60000A92092104220C920991012210927F21CC
:103B70000B918022129213920021DFF89C0808908A
:103B80000D918DF844108DF845108DF846100022E7
:103B90008DF8502008A9204603F024FD08B172B624
:103BA000FEE7062201927F22DFF87018009103924F
:103BB000042102910491002205926946204603F0F7
:103BC000E9FA08B172B6FEE7DFF8541800910C224A
:103BD00001926946204603F0DDFA08B172B6FEE7AD
:103BE000DFF840180091122201926946204603F046
:103BF000D1FA08B172B6FEE71AB010BD10B590B098
:103C00003C21684602F024FC4FF40020DFF81848FD
:103C1000DFF81818606021604FF40040E060002277
:103C2000012004212062A26022616261A161A2835D
:103C300084F8242084F83820E26384F84020204669
:103C400003F076F908B172B6FEE70022029209216C
:103C5000042204920191012208927F210391802283
:103C60000A920B920021DFF8B00700900591ADF8A1
:103C700024108DF8261000228DF830206946204649
:103C800003F0B0FC08B172B6FEE710B010BDDFF86B
:103C9000A007DFF8A01700B500224FF44003016031
:103CA000426083600261C2604261826181B003F060
:103CB000A5FF08B172B6FEE701B000BDDFF87807D6
:103CC000DFF8781700B500224FF44003016042602E
:103CD00083600261C2604261826181B003F08EFF45
:103CE00008B172B6FEE701B000BDDFF85407DFF897
:103CF000541700B500224FF4400301604260836016
:103D00000261C2604261826181B003F077FF08B155
:103D100072B6FEE701B000BD10B5DFF82C47DFF842
:103D20002C07DFF82C17206000220120E060616082
:103D3000A26022616261A261E26122622046FCF718
:103D40004BFA08B172B6FEE70021204604F078F87D
:103D500008B172B6FEE70021204604F0A2F808B1CF
:103D600072B6FEE710BD10B5DFF8E846DFF8E806EA
:103D7000DFF8DC16206000220120E0606160A260B4
:103D800022616261A261E26122622046FCF724FAAC
:103D900008B172B6FEE70021204604F051F808B1E0
:103DA00072B6FEE70021204604F07BF808B172B637
:103DB000FEE710BD0022DFF8A406DFF8A41600B568
:103DC000426002610275826101604FF4003242621A
:103DD00040234FF44041002283608162C26281B07F
:103DE00004F08CF808B172B6FEE701B000BD002205
:103DF000DFF87006DFF8701600B5426002610275E8
:103E0000826101604FF40032426240234FF440412E
:103E1000002283608162C26281B004F06FF808B151
:103E200072B6FEE701B000BDDFF84006DFF84016CD
:103E3000022200B5016042600021C16017224FF4E8
:103E400080710261416104230022802183608261CC
:103E5000C161026281B000F083FB08B172B6FEE777
:103E600001B000BDDFF80C067F2230B5DFF8084650
:103E70002060A260FF200021E0604FF0804261607E
:103E800021616161A161E261216281B0204604F09B
:103E9000B1F808B172B6FEE70021204604F09DFAA1
:103EA00045F25005A8420BD004F0B6FA012807D11C
:103EB0002A46204601B0BDE83040002104F088BA0F
:103EC00001B030BD30B59FB01AA8002100220023F8
:103ED0000EC006C00AA8002480E80E0068464FF411
:103EE000807580E80E0003A81EC00EC034210DA806
:103EF00002F0AEFA0020DFF88445DFF88415606038
:103F0000216040F61130E060202201206061002134
:103F1000A260A16125612046FEF754FD08B172B68A
:103F2000FEE72046FEF7CCFD08B172B6FEE706219B
:103F30001A9110221B921AA92046FFF74CF908B1DA
:103F400072B6FEE7702000210A900B910C9120467A
:103F50000AA904F08FFA08B172B6FEE70220012127
:103F6000002200900191029202216A46204604F04C
:103F700028FB08B172B6FEE7042000906A460221D1
:103F8000204604F01EFB08B172B6FEE71020009038
:103F90006A460221204604F014FB08B172B6FEE71F
:103FA000602000210390049100220691089105925F
:103FB0000792099203A92046FEF7B0FF08B172B636
:103FC000FEE7042203A92046FEF7A8FF08B172B657
:103FD000FEE7082203A92046FEF7A0FF08B172B64B
:103FE000FEE7702003900C2203A92046FEF796FFFF
:103FF00008B172B6FEE74FF480610E9100222A21CB
:10400000109111924FF400511291139214924FF0AB
:1040100000714FF08072169115924FF400600021EC
:104020000D9009221891199117920F950DA920460C
:1040300004F06BFA08B172B6FEE72046FDF701FB0B
:104040001FB030BD10B58EB00AA800210022002399
:10405000002480E81E00684680E80E0003A81EC009
:104060000EC01D20DFF81C446060A2602261FE20AB
:104070004FF08041E06080222160A2612046FEF77F
:10408000A1FC08B172B6FEE74FF480500A900AA96D
:104090002046FEF7CEFF08B172B6FEE72046FEF7D7
:1040A0000FFD08B172B6FEE7002100910291204693
:1040B000694604F0DFF908B172B6FEE760210391AA
:1040C000002204920592079203A92046FEF726FFDC
:1040D00008B172B6FEE7042203A92046FEF71EFFD0
:1040E00008B172B6FEE7082203A92046FEF716FFC4
:1040F00008B172B6FEE72046FDF7A3FA0EB010BD78
:1041000010B58EB00AA8002100220023002480E808
:104110001E00684680E80E0003A81EC00EC01D20C9
:10412000DFF86443DFF864136060A2602261FE2060
:10413000E06080222160A2612046FEF743FC08B1C6
:1041400072B6FEE74FF480500A900AA92046FEF7A7
:1041500070FF08B172B6FEE72046FEF7B1FC08B169
:1041600072B6FEE70021009102912046694604F0F4
:1041700081F908B172B6FEE7602103910022049232
:104180000592079203A92046FEF7C8FE08B172B651
:10419000FEE7042203A92046FEF7C0FE08B172B66E
:1041A000FEE7082203A92046FEF7B8FE08B172B662
:1041B000FEE72046FDF745FA0EB010BD10B584B0FD
:1041C000684600210022002380E80E008E4CDFF8B4
:1041D000C0122160A260A920606063218022E1609A
:1041E000A2612046FEF7EEFB08B172B6FEE70021A1
:1041F000009102912046694604F03CF908B172B67C
:10420000FEE704B010BD10B588B001A8002100225F
:1042100000230EC00EC09F48794C016941F48071A3
:104220000161016901F4807100910099026842F016
:10423000020202601021006800F0020000900322D8
:10424000009801910292059301A9204604F040FADA
:1042500040220192032102910022059201A92046E9
:1042600004F036FA08B010BD10B58B4C8B482060B6
:104270004FF4E1310C20002260616160A260E260D5
:104280002261A261E26122626262A262204604F0BF
:104290009DFA08B172B6FEE70021204604F032FD17
:1042A00008B172B6FEE70021204604F06FFD08B1A8
:1042B00072B6FEE7204604F005FD08B172B6FEE7CF
:1042C00010BD10B5764C774820604FF4E1310C20DA
:1042D000002260616160A260E2602261A261E2612D
:1042E00022626262A262204604F070FA08B172B6DD
:1042F000FEE70021204604F005FD08B172B6FEE796
:104300000021204604F042FD08B172B6FEE72046C7
:1043100004F0D8FC08B172B6FEE710BD624801682F
:10432000491C01607047000070B584B004F084FD42
:1043300004F088FD5D4C5E4D5E4E0020206041F231
:10434000707002F07CF878202821C8220290019138
:10435000009200233C220021002004F015FE04F00E
:1043600035FE00BF04F052FE04F09AFDB5F90000DE
:1043700096ED000A04F035FE142002F060F8206883
:104380000028EFD004F078FDECE70000000C0240BC
:1043900000100048000C004800B581B0142002F065
:1043A0004EF8FBE700B581B0142002F048F8FBE7B7
:1043B00000B581B004F030FEFFF799F904F098FEE3
:1043C000012002F03CF8F7E700B581B0142002F0BC
:1043D00036F8FBE700B581B04FF4FA6002F02FF831
:1043E000FAE700683449884200D0704700B581B0D0
:1043F00004F0CAFE01B05DF804EB01F0D5BF000087
:104400000004004800080048E872002090100240B4
:1044100003A10E009C7400200800900C02003004E0
:104420002000F014000052C7087500200001005061
:10443000A079002000020140C4790020040201405C
:10444000E87900200C0201406C76002000780040E2
:10445000FBA7A030B87600200084004080780020C0
:1044600000030140BC7800200403014004770020D1
:10447000001000A00028004078790020507700202C
:10448000002C01409C770020E877002000080040C5
:10449000001400404C1002407C73002000380140A2
:1044A0000C74002000440040F47A0020F87A0020C8
:1044B000707A0020787A00200010004072B6FEE783
:1044C0002C4F010871990008000000000000000056
:1044D00080000000A84F0108819900080100000039
:1044E00000000000800000003C4F01082943000844
:1044F000FEFF000000000000000200006C4F0108F9
:1045000099430008FFFF00000000000000010000C8
:10451000B04F0108A5430008FFFF000000000000A5
:10452000000100004C4F0108B1430008FFFF0000EC
:104530000000000000010000784F0108C943000896
:10454000FEFF00000000000000010000844F010891
:10455000D5430008FDFF000000000000000100003E
:1045600070B50546FDF760F906460DB9012070BD2E
:1045700095F84000012801D1022070BD012185F885
:10458000401095F8410040B9002185F840102846B8
:10459000FCF798FF41F28830A86428680168AA688F
:1045A00021F47061521E41EA02210160AC6C28685E
:1045B0008168880615D514F1010FF8D0FDF734F99C
:1045C000801B844201D3002CF1D1042085F84100E6
:1045D0000120696C41F001016964002185F84010F7
:1045E00070BD2968134B0A6869682C681A40EB682B
:1045F00042EA0162E9691A432B6A0A431A432260BC
:10460000002029680C4B4A682C691A406B6942EA01
:104610000442AC691A4322434A6029680A6842F09E
:1046200001020A606864012285F84120002185F8B2
:10463000401070BD2FFFFF00FEF8E0FF30B50446CC
:1046400081B02068816802684B0738D5550336D59C
:1046500000F1200194F8410012280DD094F8410097
:10466000222826D119E0606A02780A70636A581C11
:104670006062E26A521EE26220688268530718D5BF
:10468000E06A0028EFD10FE00878226B1070206BF1
:10469000431C2363A06B401EA063206882685307FD
:1046A00007D5A06B0028EFD12168086820F480208E
:1046B0000860204601B0BDE8304004F06DBD8B07B6
:1046C00075D5950373D50221C1602068026822F474
:1046D000E022026094F84100122816D12068016897
:1046E0004A0709D5016821F004010160E06B006808
:1046F0000168490849000160012084F8410001B0C7
:104700002046BDE8304004F048BD94F8410022281E
:104710002BD1206801684A070AD5016821F00401FD
:104720000160E06B0068016849084900016013E01E
:1047300000F1200108E00A78206B0270226B531C04
:104740002363A06B401EA0632068826812F4F85FA8
:104750001CBFA06B0028EED1012184F84110204637
:1047600001B0BDE8304004F019BD94F841000228C2
:1047700008D1012184F84110204601B0BDE8304045
:1047800004F00DBD94F84100082863D12168486900
:1047900020F040604861012284F84120606C0028CC
:1047A000204646D101B0BDE8304004F0F9BC0B070B
:1047B00014D5150312D50821C16020680268510282
:1047C00006D5026822F410220260012084F841001C
:1047D000204601B0BDE8304004F0E3BCCB072DD546
:1047E000D5032BD50121C1602068026822F4702214
:1047F0000260606C40F002006064206801684A0753
:1048000013D5016821F0040101600FF2ED20E16B86
:104810008863E06BFDF77EF8E0B1606C40F0040067
:104820006064012184F8411002E0012084F8410015
:10483000204601B0BDE8304004F0B4BCC90609D53B
:10484000D20207D51021C160204601B0BDE830403A
:1048500004F0A9BC01B030BD2DE9F0410546884601
:104860001446FCF7E1FF064695F84000012808BF12
:10487000022049D0012085F8400095F84110012917
:104880003DD100206864022185F8411028688168C4
:1048900088060AD514F1010FF8D0FCF7C5FF801B7C
:1048A000844219D3002CF1D116E00022414628465B
:1048B00000F03DF9D8F824000027E0B928688168A5
:1048C0008A0712D414F1010FF8D0FCF7ADFF801B5A
:1048D000844201D3002CF1D1042085F84100012746
:1048E000696C41F0010169640AE00221C1600120A4
:1048F00085F8410004E0012185F8411000E002271D
:10490000002085F840003846BDE8F0812DE9F043ED
:1049100081B007460C469146FCF786FF054638688D
:1049200097F84010002600F12008012908BF022056
:1049300060D0012187F8401097F84120012A54D116
:10494000002C7E644BD0122187F841100269521C62
:10495000FA620169491CB9627C62416921F04061D7
:10496000416109E0786A017888F800107A6A501C81
:104970007862F96A491EF962F86A78B1396888681C
:104980004107EFD419F1010FF8D0FCF74DFF401BA0
:10499000814512D3B9F1000FF0D10EE0386881687B
:1049A0008A0716D419F1010FF8D0FCF73DFF401B20
:1049B000814502D3B9F1000FF0D1042087F84100FE
:1049C0000120796C41F001017964012687F84100EA
:1049D0000CE00221C160012087F8410006E0786CFC
:1049E00040F008007864012600E00226002087F8E5
:1049F0004000304601B0BDE8F08300002DE9F043EF
:104A000081B007460C469146FCF70EFF0546386814
:104A1000816997F84020002600F12008012A08BF8C
:104A2000022066D0012287F8402097F84130012B00
:104A30005AD1002C7E6451D0222287F8412003698C
:104A40005B1CBB630269521C7A633C63426922F0BF
:104A5000406242F080624261386881610AE000BFD2
:104A600098F80000396B0870386B421C3A63B86BD9
:104A7000401EB863B86B80B13968886810F0060FC3
:104A8000EED119F1010FF7D0FCF7CEFE401B8145A6
:104A900012D3B9F1000FEFD10EE0386881688A07B0
:104AA00016D419F1010FF8D0FCF7BEFE401B81456A
:104AB00002D3B9F1000FF0D1042087F841000120A2
:104AC000796C41F001017964012687F841000CE01E
:104AD0000221C160012087F8410006E0786C40F0B7
:104AE00008007864012600E00226002087F84000D4
:104AF000304601B0BDE8F083806A00218163C16265
:104B000090F8411008290DD101680222CA6001689D
:104B10000A6842F400320A600068016841F002014C
:104B200001607047012280F8412004F03BBBF0B4E3
:104B30004B6A002B18BFB2F1406F03D08B6A046838
:104B40005B1E23618C69002C45D006680B6A23B379
:104B50008B68F361CD6A0B6B4C6B4F69D1F800C069
:104B60001D434B6A25431D430C690B6A45EA874583
:104B700025431D438F69CB6943B1CC6825431D4351
:104B80003D434CEA05051543756140E03D434CEA61
:104B900005052A437261F0BC7047CF6A0B6B4D6B01
:104BA000D1F800C01F434B6A2F434D691F43CB69A7
:104BB00047EA854743B1CD682F431F433C434CEA46
:104BC00004041443746122E03C434CEA040422438D
:104BD0007261F0BC70470B6A1BB305688B68EB61B0
:104BE000CE6A0B6B4C6B4F691E434B6A26431E43C8
:104BF0000C690B6A46EA874626431E438F69CB69D8
:104C000053B1CC6826431E433E4316436E61B2F156
:104C1000406F1BD1F0BC70473E4332436A61F0BC29
:104C20007047CB69BBB1CE6A0C6B4D6B26434C6AA7
:104C30002E434D692643CC6846EA854626430568DF
:104C400033431343B2F1406F6B6112D0006849687F
:104C50008161F0BC70474B6A5BB1CE6A0D6B4C6BE7
:104C6000496900682E432643334343EA81431A438C
:104C70004261F0BC704730B4002513E050F8042BBB
:104C8000D30744BFA9F101039A18091F042942F868
:104C9000045BFAD213468C0744BF15809B1CC907DE
:104CA00048BF1D7050F8041B0029E7D130BC704785
:104CB00059480021C17041700170016170470000C6
:104CC00030B5554D2C6981B01CB1641E2C6101B00A
:104CD00030BD687888B90021296104F075FA30B1D7
:104CE000022006212C616870297001B030BD04F0EB
:104CF0005BFB2C6908B1032047E02878052800F207
:104D00007A80DFE800F00317242D4F692C61434CB3
:104D10002046FBF7B9FA2046FBF75EFA01224FF472
:104D200080613C48FDF707F8642401202C6128705D
:104D300001B030BD2C6100224FF480613548FCF792
:104D4000FAFF142402202C61287001B030BD2C61C0
:104D5000FFF709F8002403202C61287001B030BD52
:104D60002C6104F021FA012808D104240020042138
:104D70002C61E8702970A87001B030BDE878401C43
:104D8000E870C0B2032807DD0120002406212C6151
:104D90006870297001B030BD002400202C6128709B
:104DA00001B030BD2C6104F00FFA58B904F00FFACD
:104DB00004F07AFA85ED030A04F009FA04F0D2FA55
:104DC00085ED020A04F0F7FA0024052001212C6188
:104DD0002870A97001B030BD2C6104F0E5FA20B94B
:104DE00004F0E6FA04F012FBA88004F0F4F90420C1
:104DF00000242870AC702C6101B030BD0649897860
:104E0000002908BF04F005BA012908BF04F0F1BA6F
:104E100070470000000C00486C7A0020B876002033
:104E200062F30F2262F31F42401810F0030308D010
:104E3000C91A1FD3DB0748BF00F8012D28BF20F88F
:104E4000022D130030B414461546103928BF20E94E
:104E50003C00FAD8490728BF20E90C0048BF40F8B9
:104E6000042D890028BF20F8022D48BF00F8012D2D
:104E700030BC7047C91818BF00F8012DCB0728BFF8
:104E800000F8012D704790F81C1169B9002201212A
:104E900080F81D2180F81C11D0F82001016841F034
:104EA0002001016002207047012070470068AC4972
:104EB000884200D0704700B5AA4881B0026842F429
:104EC000000202600022006800F40000009005214A
:104ED00000981420FCF76DFD01B05DF804EB142080
:104EE000FCF794BD00F52C71D0F8F00204F0F4BA90
:104EF00001EB810300EBC302D0F8F002D2F87C2171
:104F000004F01CBB01EB810300EBC302D0F8F002FC
:104F1000D26B04F04EBBD0F8F00204F0E8BB10B541
:104F20000446A068022818BFFFF7C8FAD4F8F002B8
:104F3000012104F0C6FBD4F8F002BDE8104004F0F3
:104F40008EBB10B50446D4F8F00204F0BDFBA06996
:104F500020B18548016841F00601016010BD10B51F
:104F60000446A06930B18048016821F00601016063
:104F7000FEF756FDD4F8F002BDE8104004F0ADBBDA
:104F800010B5044679487649C0F8F0420822C4F8C2
:104F9000C402426002230022016083600361426117
:104FA0008261C2610262FCF7E3FE08B1FFF786FA94
:104FB000D4F8C40218230022002100F041FFD4F8E5
:104FC000C40258230022802100F03AFFD4F8C40222
:104FD000C0230022812100F033FFD4F8C4024FF433
:104FE00088730022012100F02BFFD4F8C4024FF493
:104FF00080730022822100F023FF002010BD00B545
:1050000081B0D0F8C402FCF76CFF0146002019B152
:1050100002290CBF0120032001B000BD10B51C46C1
:105020001346D0F8C4022246FDF7DCFB01460020FF
:1050300021B1022901D1012010BD032010BD00B50E
:1050400081B0D0F8C402FDF7FCFB0146002019B185
:1050500002290CBF0120032001B000BD00B581B0C2
:10506000D0F8C402FDF752FC0146002019B1022914
:105070000CBF0120032001B000BD00B581B0D0F805
:10508000C402FDF772FC0146002019B102290CBFD1
:105090000120032001B000BDD0F8C40201F07F025E
:1050A00002EB8203090600EBC30002D590F82A0048
:1050B000704790F86A01704700B581B0D0F8C4021B
:1050C000FDF77CFB0146002019B102290CBF01202D
:1050D000032001B000BD00B581B0D0F8C402FDF7D7
:1050E000F8FB0146002019B102290CBF0120032062
:1050F00001B000BD00B581B0D0F8C402FDF7C5FB1A
:105100000146002019B102290CBF0120032001B083
:1051100000BDD0F8C402FDF7D3BB10B5044611B1F1
:1051200001290FD010BDA06930B1FEF779FC0E48FF
:10513000016821F006010160D4F8F002BDE81040DA
:1051400004F0CBBAD4F8F00204F0BEFAA06920B1A2
:105150000548016841F00601016010BD0448704730
:10516000005C00405810024010ED00E05066002046
:10517000146C002070470068012180F822117047EC
:105180000021A0F844104BF68072A0F840200020C7
:105190007047B0F8402044F27F010A40A0F8402058
:1051A000002070470EB40121A0F840100022A0F8A2
:1051B0004020A0F84420A0F85020002003B0704701
:1051C000F0B40C7830F82460CD7848F68F130022C4
:1051D0001E40032D0CD8DFE805F002080C0546F44C
:1051E000007606E046F4C06603E046F4806600E020
:1051F000012248F280052E4320F8246048F68F767D
:105200000B781C4630F8247037403B432B4320F882
:1052100024300B7B91F800C0002B75D1CB884FF662
:10522000FE741C404B78002BB0F85030034424D05F
:1052300003EBCC0303F580631C800B7830F823402C
:10524000640608D530F82340264046F4004646F070
:10525000C00620F8236048F6BF740B78C97801298E
:1052600030F823100EBF0C400C4084F0200425437E
:1052700020F823501046F0BC704703EBCC0C0CF226
:10528000044CACF80040B0F85030C4180B7804EB74
:10529000C3040B6904F206444BB9278848F2FF3374
:1052A0001F402780238843F40043238010E03F2BD6
:1052B00005D25F08DB0748BF7F1CBB0207E05F0920
:1052C00013F01F0F08BF7F1EBB0243F4004323806F
:1052D0000B7830F82340640408D530F8234026408A
:1052E00046F4404646F0800620F823600B7830F8FC
:1052F00023404BF68F710C4084F44054254320F832
:1053000023501046F0BC704730F82C30334043F443
:10531000014343F0800320F82C30B0F850300F895F
:10532000C4180B7804EBC30404F580644FF6FE73D5
:105330003B402380B0F850300C78C71807EBC40707
:105340004B8907F204474FF6FE7423403B804B78AD
:105350000C78002B30F8243029D15B0408D530F8C4
:105360002430334043F4404343F0800320F824309A
:105370000B7830F82340640608D530F823402640E7
:1053800046F4004646F0C00620F823604BF68F73C3
:105390000C7830F824601E4086F440562E4320F8E6
:1053A00024600B7830F8234048F6BF712CE05B0492
:1053B00008D530F82430334043F4404343F08003B1
:1053C00020F824300B7830F82340640608D530F8F4
:1053D0002340264046F4004646F0C00620F82360ED
:1053E00048F6BF73CE780C78012E30F824601ABFCF
:1053F000334083F0200333402B4320F824300B78D4
:1054000030F823404BF68F710C40254320F8235091
:105410001046F0BC704730B40B7B0C7802464878DD
:10542000002B3BD1002832F824001BD040060AD5BF
:1054300032F8243048F68F70034043F4004343F0C1
:10544000C00322F8243048F6BF70097832F82130C2
:10545000034043F4004343F0800322F8213000204E
:1054600030BC704740040AD532F8243048F68F70BB
:10547000034043F4404343F0800322F824304BF6CA
:105480008F70097832F82130034043F4004343F031
:10549000800322F82130002030BC7047002832F809
:1054A000240048F68F732FD1400408D532F8240029
:1054B000184040F4404040F0800022F8240048F2B8
:1054C000C004087832F820506D0605D532F8205017
:1054D0001D40254322F82050087832F820502B40F8
:1054E000234322F820304BF68F700C7832F824508A
:1054F00048F2800305401D4322F8245048F6BF704F
:10550000097832F8214032E0400408D532F824000E
:10551000184040F4404040F0800022F82400087811
:1055200032F82040640608D532F820401C4044F48C
:10553000004444F0C00422F82040087832F82040AB
:10554000234043F4404343F0800322F8203048F6E0
:10555000BF700C7832F8245048F2800305401D4398
:1055600022F824504BF68F70097832F8214004401D
:10557000234322F82130002030BC704770B50E461E
:1055800005467178307B012940F025823169B26986
:105590000C46944288BF144678B9F2887169A3B268
:1055A000284600F09BFBB5F850003178281800EB36
:1055B000C10000F20240048004E2F0783278336ADD
:1055C000022840F00881994235F8221080F0EE80E0
:1055D00048F68F70014041F4014141F0800125F807
:1055E00022101B1B3362317870780A4635F822305E
:1055F0005A0670D520BBB5F850002A1802EBC1023C
:1056000002F206424CB9118848F2FF300140118085
:10561000138843F4004313801CE03F2C06D260083B
:10562000E10748BF401C8002108013E0600914F0BD
:105630001F0F08BF401E800240F40040108009E0A8
:10564000012807D1B5F85000281800EBC10000F27E
:105650000640048072897169A3B2284600F03EFBBF
:105660007069316920447061306A814232BF001B29
:105670000446002030627078002840F02581B5F89B
:1056800050002918307801EBC00101F202415CB9E9
:105690000A8848F2FF3002400A800B8843F4004336
:1056A0000B80A3B2328989E13F2C08D26008E2075F
:1056B00048BF401C80020880A3B232897EE16009A5
:1056C00014F01F0F08BF401E800240F40040088005
:1056D000A3B2328972E120BBB5F850002A1802EB60
:1056E000C10202F202424CB9118848F2FF30014077
:1056F0001180138843F4004313801CE03F2C06D232
:105700006008E10748BF401C8002108013E0600978
:1057100014F01F0F08BF401E800240F400401080AC
:1057200009E0012807D1B5F85000281800EBC100A6
:1057300000F20240048032897169A3B2284600F069
:10574000CDFA7069316920447061306A814232BF9C
:10575000001B0446002030627078002840F0218150
:10576000B5F850002918307801EBC00101F206416C
:105770004CB90A8848F2FF3002400A800B8843F493
:1057800000430B8018E13F2C06D26008E20748BFB7
:10579000401C800208800FE1600914F01F0F08BF51
:1057A000401E800240F40040088005E148F68F600A
:1057B000014041F4004141F0800125F82210B5F884
:1057C00050003178281800EBC10000F2024003803D
:1057D0009BB23289F2E035F8221048F68F70014012
:1057E00041F4014141F0800125F822101B1B336276
:1057F000317870780A4635F822305A0672D520BBC7
:10580000B5F850002A1802EBC10202F206424CB968
:10581000118848F2FF3001401180138843F400439F
:1058200013801CE03F2C06D26008E10748BF401CF3
:105830008002108013E0600914F01F0F08BF401EA3
:10584000800240F40040108009E0012807D1B5F83B
:105850005000281800EBC10000F206400480728955
:105860007169A3B2284600F039FA706931692044A1
:105870007061306A814232BF001B04460020002C58
:10588000306200F09F807078F0B9B5F85000317840
:10589000281800EBC1003F2C00F2024008D261083A
:1058A000E20748BF491C89020180A3B2328985E022
:1058B000610914F01F0F08BF491E890241F400411D
:1058C0000180A3B2328979E0012808D1B5F85000EF
:1058D0003178281800EBC10000F202400480A3B226
:1058E00032896BE020BBB5F850002A1802EBC102E8
:1058F00002F202424CB9118848F2FF300140118097
:10590000138843F4004313801CE03F2C06D2600848
:10591000E10748BF401C8002108013E0600914F0CA
:105920001F0F08BF401E800240F40040108009E0B5
:10593000012807D1B5F85000281800EBC10000F28B
:105940000240048032897169A3B2284600F0C6F98A
:105950007069316920447061306A814232BF001B36
:105960000446002030626CB37078D0B9B5F85000AE
:105970003178281800EBC1003F2C00F2064006D217
:105980006108E20748BF491C8902018014E06109EF
:1059900014F01F0F08BF491E890241F40041018025
:1059A0000AE0012808D1B5F850003178281800EB3A
:1059B000C10000F206400480A3B2728971692846D2
:1059C00000F08CF9317835F8212048F6BF7002409C
:1059D00082F0300223E000283CD1B169306988426E
:1059E00032BF091A08460021B161B5F8501032786B
:1059F000691801EBC20101F20641C0B90A8848F2F8
:105A0000FF3002400A800B8843F400430B804BF6C2
:105A10008F70317835F82120024082F4405242F4F0
:105A2000004242F0800225F82120002070BD3F286E
:105A300006D24208C00748BF521C90020880E6E721
:105A4000420910F01F0F08BF521E900240F40040A0
:105A50000880DCE7F078022876D121BBB5F8500049
:105A60002918307801EBC001306901F2024148B9D0
:105A70000A8848F2FF3002400A800B8843F4004352
:105A80000B8010E03F2805D24208C00748BF521CD7
:105A9000900207E0420910F01F0F08BF521E90024B
:105AA00040F400400880707830BBB5F850002918E9
:105AB000307801EBC001306901F2064148B90A882B
:105AC00048F2FF3002400A800B8843F400430B8009
:105AD0001EE03F2806D24208C00748BF521C900271
